:020000040800F2
:1000000008E50024A103000831B30008D19F0008CF
:1000100021B30008851300082DF20008000000003D
:10002000000000000000000000000000E1020008E5
:100030008D200008000000003D03000801C20008F8
:10004000BB030008BB030008BB030008BB03000898
:10005000BB030008BB030008BB030008BB03000888
:10006000BB030008BB030008BB030008111A00080B
:100070001D1A0008291A0008351A0008411A00083C
:100080004D1A0008591A0008BB030008C5210008D2
:1000900031220008BB030008BB030008BB030008B3
:1000A000BB030008BB030008BB030008BB03000838
:1000B000BB030008BB030008BB030008BB03000828
:1000C000BB030008BB030008BB030008BB03000818
:1000D000C1C000087DD60008BB030008BB030008B0
:1000E000BB030008BB03000800000000BB030008BE
:1000F000BB030008BB030008BB030008BB030008E8
:10010000BB030008BB030008BB030008BB030008D7
:10011000BB03000829C8000885C30008BB0300080A
:10012000BB030008BB030008BB030008BB030008B7
:10013000BB030008BB030008BB030008BB030008A7
:1001400000000000000000000000000000000000AF
:10015000BB030008BB030008BB030008BB03000887
:10016000BB030008BB030008BB030008BB03000877
:10017000BB030008C9B80008BB030008000000006A
:10018000BB030008BB03000835C80008BB03000818
:10019000BB030008BB030008BB030008BB03000847
:1001A000BB030008BB030008BB03000800000000FD
:1001B000BB030008BB030008BB030008BB03000827
:1001C000BB030008BB0300080000000000000000A3
:1001D0000000000000000000BB0300080000000059
:1001E000000000000000000000000000000000000F
:1001F0000000000000000000BB030008BB03000873
:10020000BB030008BB03000800000000BB0300089C
:10021000BB030008BB030008BB030008BB030008C6
:10022000BB03000800000000BB0300080000000042
:10023000BB030008BB03000800000000BB0300086C
:10024000BB030008BB030008BB030008BB03000896
:10025000BB030008BB030008BB030008BB03000886
:10026000BB030008BB030008BB030008BB03000876
:10027000BB030008BB030008BB030008000000002C
:10028000BB030008BB030008BB030008BB03000856
:1002900000000000BB030008BB03000800000000D2
:1002A00000000000BB030008BB030008BB030008FC
:1002B00071D60008BB030008BB0300089D2200089C
:1002C000BB030008BB030008BB030008DFF80CD029
:1002D00000F01EF900480047AD3E010808E5002483
:1002E0002C4B19680868B0E8F04F80F30988BFF319
:1002F0006F8F4FF0000080F31188704700000000FE
:1003000008480068006880F308884FF0000080F318
:10031000148862B661B6BFF34F8FBFF36F8F00DFF3
:1003200000BF00BF08ED00E0DFF80C00016841F4F9
:1003300070010160704700BF88ED00E0EFF30980B5
:10034000BFF36F8F134B1A681EF0100F08BF20ED1C
:10035000108A20E9F04F106009B44FF0500080F38C
:100360001188BFF34F8FBFF36F8F15F059FF4FF018
:10037000000080F3118809BC19680868B0E8F04FE4
:100380001EF0100F08BFB0EC108A80F30988BFF38D
:100390006F8F704770030024EFF3058070470000F3
:1003A0000648804706480047FEE7FEE7FEE7FEE70F
:1003B000FEE7FEE7FEE7FEE7FEE7FEE7C5C2000850
:1003C000CD0200082DE9F05F0546002092469B46CD
:1003D00088460646814640241BE02846414647465B
:1003E000224600F051F853465A46C01A914110D3A4
:1003F00011461846224600F07BF82D1A67EB0108DB
:100400004F4622460120002100F072F817EB000948
:100410004E41201EA4F10104DFDC484631462A4645
:100420004346BDE8F09F2DE9F0410024061B254618
:1004300071F1000605DA01240027D0EB070067EB15
:100440000101161E73F1000605DA0027D2EB070240
:10045000012567EB0303FFF7B5FF86460E461746F7
:100460009C46AC4204D00025D0EB050E65EB01069E
:1004700024B10020D2EB000760EB030C704631463C
:100480003A466346BDE8F081202A04DB203A21FA8F
:1004900002F00021704721FA02F3D040C2F120029D
:1004A000914008431946704740EA01039B0703D077
:1004B00009E008C9121F08C0042AFAD203E011F8A3
:1004C000013B00F8013B521EF9D27047D2B201E065
:1004D00000F8012B491EFBD270470022F6E710B549
:1004E00013460A4604461946FFF7F0FF204610BDA2
:1004F000202A04DB203A00FA02F1002070479140E4
:10050000C2F1200320FA03F3194390407047000022
:10051000064C074D06E0E06840F0010394E8070050
:1005200098471034AC42F6D3FFF7D4FE7C7501082F
:100530009C75010870B58C1810F8015B15F0070365
:1005400001D110F8013B2A1106D110F8012B03E06C
:1005500010F8016B01F8016B5B1EF9D12B0705D474
:100560000023521E0DD401F8013BFAE710F8013BBD
:10057000CB1A921C03E013F8015B01F8015B521ED9
:10058000F9D5A142D8D3002070BD00009FED201AFC
:10059000B5EE002A00EE012A9FED1E1ABDEEC20A3A
:1005A000B5EEC02AF1EE10FA10EE100AB8BF01380D
:1005B00000EE100A0020B8EEC00A32EE400A9FEDAD
:1005C000162A20EE010ABCEEC01A11EE101A30EE07
:1005D000021AB0EB512F18BF002102EE101A46F696
:1005E000785000FE010AC0F60100B8EE422A00EB86
:1005F000810090ED011A30EE420AB7EE002A32EE89
:10060000402A20EE010A90ED001A02EE010A70471E
:1006100083F9223E00000044000000C4B0B5038806
:100620000D88AB4256D145884C88A54252D11488DA
:10063000A3424FD15488A5424CD105FB03FC43682B
:1006400000254968B5EB9C0F506831D04FEA9C02F9
:10065000524200BF93ED000A91ED001A30EE010AFC
:1006600003F1100E01F1100400F1100580ED000AF5
:10067000013293ED010A91ED011A30EE010A80ED8D
:10068000010A93ED020A91ED021A30EE010A80EDA3
:10069000020A93ED030A91ED031A30EE010A734644
:1006A000214680ED030A2846D4D1214628467346C8
:1006B0001CF003020CD05242B3EC010AB1EC011A57
:1006C00030EE010A051D013280ED000A2846F3D103
:1006D000002000E0FD2040B2B0BD00002DE9F04F49
:1006E0008BB0B0F800B0B0F802E0F34540F05181B3
:1006F0000B88FD229B4540F04D814F88BB4240F066
:100700004981BBF1000F436800F029816FF00300BD
:100710004C6800EB8B08CDF81CE0002700934FF0ED
:100720007E5906945E462046BBEB060009D0B90010
:100730002046FFF7D2FE00200130874204F1040476
:10074000FAD104F1040AC4F80090751E10D0A8EB89
:1007500087015046FFF7C1FE012054460130864212
:1007600004F10404FAD1002D07F101072E46DBD174
:10077000BBF1000F009BDDF81CE000F0F0800420CE
:10078000CDF814B000EB8E0001901846ABF10106D5
:1007900003EB8E044FEA8E021D1DCEF100010023F3
:1007A00008919FED800A7746814600BF5B4580F047
:1007B000F58003FB0EF0B0EE403A09EB80010A91A0
:1007C00091ED001A0699B0EE414A01EB80000990C4
:1007D0002146304606E000BF91ED004A0138B0EEF8
:1007E000423A1144B5EEC04AF1EE10FA0ADDB4EE19
:1007F000C34AB0EE442AF1EE10FAD8BFB0EE432A55
:1008000009E000BFB1EE442AB4EEC23AF1EE10FAAC
:1008100001DBB0EE432A0028DED1B5EE402AF1EE2E
:1008200010FA00F0BB80B0EEC13AB4EE423AF1EEFD
:1008300010FA1CBFD84310EB0B0004D0002000BFFF
:1008400001308642FCD1B5EE401AF1EE10FA00F00C
:10085000A580CDE90346AEEB030C0A99BCF1010F6C
:100860004FF07E5008600AD00120294691ED002A01
:1008700082EE012A01308742A1EC012AF6D1DDE99E
:10088000080100BF91ED002A82EE012A0C1D013003
:1008900081ED002A2146F5D1ACF1010B05994FF00D
:1008A0000008DDF818A04846CDF80890984505D115
:1008B00000EB8C060AEB8E0A33E000BF90ED001AC5
:1008C0000A9CB0EE413ABBF1000F94ED002A01EE14
:1008D000423A00F1040680ED003A15D001200024D0
:1008E00006EB040905EB040E99ED002A9EED003A93
:1008F00001EE432A0130874204F1040489ED002A05
:10090000EED12644DDF81CE0DDE908049AED002A6A
:1009100094ED003A01EE432A04340130AAEC012A96
:10092000F4D106EB8300013908F10108BED1DDF8EE
:100930000890013F049E09F10409039C03F101039F
:100940000198A6F101060444DDF814B005447FF4D3
:100950002DAFB5EE401A009BF1EE10FA20D10EFB40
:100960000BF1002000294FF000020BD093ED000A9C
:10097000B5EE400AF1EE10FA04D101328A4203F1D9
:100980000403F3D38A4208BF6FF004000BB0BDE844
:10099000F08FFD2250B20BB0BDE8F08FFB22F9E7DB
:1009A0000022F7E7000000002DE9F04F88B0B0F812
:1009B00002C00B889C4540F08880B0F800E01388A6
:1009C0009E4540F08280B1F80290538899457CD1D1
:1009D0004FEA9C04476804FB09F049680CF00305E2
:1009E000029101EB0010019000202CF00303A0EB1A
:1009F0009C0107EB830607914FEA89035168C5F113
:100A0000000A00919FED330ACDE9039CCDE9050E64
:100A10000099CE4601EB8008DDE901BC002CB0EE68
:100A2000401AE146384627D0624607993846B0EE6C
:100A3000401A00BF92ED002A90ED003A03EE021A30
:100A40001A4490ED014A92ED002A04EE021A1A446B
:100A500090ED025A92ED002A05EE021A1A4490ED2A
:100A6000036A92ED002A06EE021A013100F110002D
:100A70001A44DFD1D946304655B1514690ED002A8F
:100A800099ED003A02EE031A043001319944F5D190
:100A900008F1040088ED001ABEF1010E0CF1040CFF
:100AA0000BF1040B8046B9D1DDF80C900598DDF808
:100AB00010C04844DDF818E007EB8C07BEF1010ECA
:100AC00006EB8C06A2D1002000E0FD2040B208B069
:100AD000BDE8F08F00000000B0B503880D88AB4280
:100AE00056D145884C88A54252D11488A3424FD193
:100AF0005488A5424CD105FB03FC43680025496896
:100B0000B5EB9C0F506831D04FEA9C02524200BFB7
:100B100093ED000A91ED001A30EE410A03F1100E38
:100B200001F1100400F1100580ED000A013293ED8F
:100B3000010A91ED011A30EE410A80ED010A93EDB0
:100B4000020A91ED021A30EE410A80ED020A93ED9D
:100B5000030A91ED031A30EE410A7346214680EDF7
:100B6000030A2846D4D12146284673461CF00302C6
:100B70000CD05242B3EC010AB1EC011A30EE410A3A
:100B8000051D013280ED000A2846F3D1002000E067
:100B9000FD2040B2B0BD00002DE9F04F83B00288C7
:100BA0004B889A424DD144880B889C4249D10023FE
:100BB000D1F804804FEA940C416804F0030ECDF89C
:100BC0000080A3EB94040294140196000194CEF1EA
:100BD000000B4046BCF1000F1ED04746029C00BFF0
:100BE00008683D4638603744486807EB0609A85155
:100BF00001F11000D1F808A0013447F806A009EB74
:100C00000607C968374449F806100146E8D101993A
:100C10006C18014603E000BF009800EB8304BEF1AE
:100C2000000F07D05D4600BF51F8040B013520606E
:100C30003444F9D10133013A08F10408CAD1002043
:100C400000E0FD2040B203B0BDE8F08F9FED1F1A19
:100C500020EE010A9FED1F2ABDEEC01AB5EEC00AB4
:100C6000F1EE10FA11EE100AB8BF013801EE100AC9
:100C70000020B8EEC11A30EE410A9FED151A20EEA1
:100C8000010ABCEEC01A11EE101A30EE021AB0EBD7
:100C9000512F18BF002102EE101A46F6785000FEC0
:100CA000010AC0F60100B8EE422A00EB810090ED87
:100CB000011A30EE420AB7EE002A32EE402A20EE48
:100CC000010A90ED001A02EE010A704783F9223EF4
:100CD00000000044000000C410B53249044600681A
:100CE000884202D0304A904202D1D1F8080302E093
:100CF0002E48D0F8080310F4403F10D006F0B8FF9B
:100D00006168B1F5803F06D0B1F5003F03D0B1F581
:100D1000403F26D101E0090C17E0800821E00021C6
:100D20004FF4002006F05CF861688A03920B18D13A
:100D30008A140C2A15D2DFE802F01406060606060D
:100D4000060B0D0F1113890C4900B0FBF1F008E000
:100D5000000906E0400904E0800902E0C00900E063
:100D6000000A13494008884204D82068816821F4A9
:100D7000407108E00F49884207D82068816821F453
:100D8000407141F48071816010BD0B498842206838
:100D9000816804D821F4407141F40071F3E741F413
:100DA0004071F0E70020024000210240006002583C
:100DB000105E5F0020BCBE0040787D0110B5846BE2
:100DC000216E11F0500F06D0216EC90625D52046A0
:100DD00001F036FF10BD206E40F4007020662068E0
:100DE0000168090707D509F0F3FC90B12068C068D5
:100DF000800403D50DE0C06880070AD1206E20F47E
:100E000080702066206EC00403D4206E40F0010084
:100E10002066204601F012FF10BDA16DC96CBDE82F
:100E20001040084710B5806B016E41F0400101662B
:100E3000416E41F00401416601F002FF10BD10B5A2
:100E4000806B01F0FCFE10BD70B50446006881683F
:100E50008268C1F3400112F0010F28D039BB8168CC
:100E600001F00D01012914D18168124A1140891C39
:100E7000816021680320086004F0D0FA054612E082
:100E800004F0CCFA401B02280DD920688068C00706
:100E900009D0206E40F010002066606E40F0010026
:100EA0006066012070BD20688068C007E8D100201E
:100EB00070BD0000C0FFFF7F70B504460068816808
:100EC00011F0010F40D18168204A11422DD1816873
:100ED000D5432940491C816004F0A0FA1C4906460C
:100EE00020681C4B884201D0984201D11A4A00E088
:100EF0001A4A9268984202F01F0200D001468142CD
:100F00001DD0E2B120E0816811F0010F03D18168AA
:100F10002940491C816004F081FA801B02280ED907
:100F200020680068C043C00709D0206E40F0100060
:100F30002066606E40F001006066012070BD206890
:100F40000168C943C907DED1002070BD3F000080A1
:100F500000200240002102400023024000630258AA
:100F600001220248114604F053BA0000000802585A
:100F700000220248012104F04BBA00000008025888
:100F800001220248082104F043BA00000008025878
:100F900000220248082104F03BBA00000008025871
:100FA00070B50446FFF7E4FF922000F067F97D4931
:100FB0000622122000F044F9FFF7D2FF794E794D56
:100FC0001C3EF07840B368782978D6ED031A000209
:100FD00000B2084300EE900A94ED0C1A94ED080A52
:100FE000F8EEE00A60EEA10A10EE801A84ED001A15
:100FF000E878A97896ED031A000200B2084300EEE3
:10100000900AD4ED0D1AF8EEE00A60EE810A50EE77
:10101000801AC4ED011A23E06878297896ED031A46
:10102000000200B2084300EE900A94ED080AF8EEC0
:10103000E00A60EE810A60EE800AC4ED000AE878FA
:10104000A97896ED031A000200B2084300EE900A58
:10105000F8EEE00A60EE810A60EE800AC4ED010A53
:1010600068792979000200B20843708100EE900A85
:10107000F8EEE00A60EE810A20EE800A84ED020AB2
:10108000FFF786FF47490822002000F0D9F8FFF754
:1010900077FF28780F285DD1F07880B3E878A978B9
:1010A00094ED091A000200B2084300EE900A96ED92
:1010B000040AF8EEE00A10EE801A84ED031A68794B
:1010C000297994ED0A1A000200B2084300EE900A52
:1010D000F8EEE00A10EE801A84ED041AE879A97996
:1010E000000200B20843708100EE900A94ED0B1AE2
:1010F000F8EEE00A10EE801A84ED051A2AE0FFE708
:10110000E878A97896ED040A000200B2084300EEE0
:10111000900AF8EEE00A60EE800AC4ED030A6879EE
:101120002979000200B2084300EE900AF8EEE00AC6
:1011300060EE800AC4ED040AE879A979000200B2E1
:101140000843708100EE900AF8EEE00A20EE800A73
:1011500084ED050AFFF70CFFA22000F08FF811497B
:101160000222222000F06CF8FFF7FAFE2878697856
:10117000C00040EA51107081B0F5806F02DBA0F52D
:1011800000607081B6F90A00B4EE001A00EE100A91
:10119000F3EE070AB8EEC00A40EE010AC4ED070AF2
:1011A00070BD00003803002470B51A4A0D46184C73
:1011B00000211060A1700FF0FBF9A1780843A07026
:1011C0000FF08AFAA17840EA0100A0701DB1124820
:1011D00000F0A6F91AE01048DFED173A9FED174A24
:1011E000C0ED083A9FED0D0ADFED0D0A9FED0D1AD7
:1011F000DFED0D1A9FED0D2ADFED0D2A9FED0D3A63
:1012000080ED064A00F1240181EC070AA07870BD48
:101210001C03002464030024CC470024F0A032BA4D
:10122000B9F3AFBAB1EFBBBA0B6F993E2A98933DB1
:10123000000000007A841D410F187F3F000020420B
:1012400070B540F0800014460D4600F017F806E037
:10125000552000F013F8641E05F8010BE4B2002CD1
:10126000F6D170BD10B540F080000C4600F006F8D5
:10127000552000F003F8207010BD000001B582B0C9
:101280004FF47A700123009001AA044802A9006873
:1012900007F066FB9DF804000EBD00006403002407
:1012A00010B50C46FFF7EAFF2046BDE81040FFF7F7
:1012B000E5BFB6EE000A92ED021AB0EE403AD2ED6A
:1012C000030A01EE413A92ED012AD2ED002AF0EE36
:1012D000001A62EE013A90EC034A00EEE03A22EE88
:1012E000202A42EEE03A02EE812A63EE040A43EE3F
:1012F000A40A42EE050AB0EE402A60EEA10AC1ED52
:10130000000A92ED011A92ED023AD2ED002AD2EDD6
:10131000030A61EE033A01EE412A90EC034A23EE00
:10132000203A42EEA03A00EEE02A02EEC13A63EE25
:10133000840A42EE240A43EE050A60EEA10AC1EDDA
:10134000010A92ED011AD2ED032AD2ED020A92EDC2
:10135000002A21EE223A60EEA22AD0EC033A01EEF6
:10136000410A02EE603A42EE012A00EEE00A23EE64
:10137000231A02EE841A00EE241A21EE210A81EDCE
:10138000020A7047FEE700002DE9F047F0EE413A0F
:10139000F0EE602AB0EE613A9FED291ADFED290ADE
:1013A0000D468246102010F0FAFE9FED271ADFED61
:1013B000270AB0EE620A04460C2010F0F0FEDFEDC2
:1013C000252A9FED231AB0EE630AF0EE620A034667
:1013D0000C2010F0E4FEB1EE041AF0EE620AB0EE5A
:1013E000430A02460C2010F0DAFE9FED1B1ADFEDD7
:1013F0001B0AB0EE420A06460C2010F0D0FE07464B
:1014000018011B0931094FEA061C154E4FEA142931
:1014100040EA122850464CEA172C86F80090747067
:10142000B370082386F80380327132467171294601
:1014300086F806C0F771BDE8F0470FF003BC000066
:10144000DA0F4941DA0F49C100003442000034C2CA
:101450000000FA43000000000000C8420000C8C2BB
:1014600078020024F0B40A4C050A0E0A170A257007
:101470006070180AA670E170277162712246A0712F
:10148000E3710823F0BC034899010FF0DBBB0000B7
:10149000B002002420130024002070470020704771
:1014A00005490022054810B50CF0D4FA0449034858
:1014B0000CF0C3FA002010BDD8CD0024FCC00024DD
:1014C000D8C5002410B5044629B10A681AB10146EE
:1014D000054814F07BFB054821460CF0AEFA0348A2
:1014E0000CF084FA002010BDE0040024FCC00024AD
:1014F00000207047094A10B5D2F8BC22D2F8142255
:101500000AB1012010BD0A46014604480CF0A2FAB7
:10151000BDE8104001480CF013BB0000FCC00024E3
:101520002DE9F04F044600202DED048B89B000908A
:10153000019000F001FDFE4D0DF10809FD4E0DF189
:10154000140A4FF07C5B85ED050ADFEDFB9A00BFC6
:1015500000F0F2FCD5ED050AF84930EE600A10EE15
:10156000100A884214DDDFEDF60A9FEDF61A9FEDB2
:10157000F60ADFEDF61A9FEDF62AC4ED090A84EDAE
:101580000A1A84ED0B0AC4ED0F1A84ED062A87E1CE
:101590009FEDF00A00F094FC9FEDEF0A002784ED28
:1015A0000F0A84ED090A84ED0A0A84ED0B0AF9E0BA
:1015B000FFF7DEFC9220FFF761FE0622694612204B
:1015C000FFF73EFEFFF7CCFC9DF801009DF80010F0
:1015D000D5ED030A000200B2084300EE100AB8EE8F
:1015E000C00A20EE200A84ED000A9DF803009DF851
:1015F0000210D5ED031A000200B2084300EE900A73
:1016000020EE000AF8EEE00A20EEA11A84ED011A9D
:101610009DF805009DF8041001EE010A000200B2D9
:10162000084300EE900AF8EEE00A60EEA10AC4ED6D
:10163000020A00EEA00A0EF01EFAB0EE408A94ED07
:101640000F0A30EE080A84ED0F0AFFF7A1FC08220A
:1016500069460020FFF7F4FDFFF792FC9DF80000BB
:101660000F2840D19DF803009DF80210D5ED040A23
:10167000000200B2084300EE100AB8EEC00A20EEE5
:10168000200A84ED030A94ED091A31EE000A84ED74
:10169000090A9DF805009DF80410000200B20843F5
:1016A00000EE100AB8EEC00A20EE200A84ED040A0B
:1016B00094ED0A1A31EE000A84ED0A0A9DF807003B
:1016C0009DF80610000200B2084300EE100AB8EEC2
:1016D000C00A20EE200A84ED050AD4ED0B0A30EE94
:1016E000800A84ED0B0A002F7ED0B4EEC98AF1EE99
:1016F00010FA01DDB0EE489AB4EEE88AF1EE10FA85
:1017000001D2F0EE488A00204946524604EB800C94
:1017100001EB80039CED030AD3ED000AB4EEE00A6E
:10172000F1EE10FA01DD83ED000A02EB8003D3ED48
:10173000000AB4EEE00AF1EE10FA01D283ED000ADD
:10174000401CC0B20328E1D379EE680A5FF00000C4
:101750004A465346C5ED060A02EB800103EB800CB6
:1017600091ED001A9CED000A06EB8008411C31EE59
:10177000400AC8B2032888ED000AEDD310EE900AA3
:10178000584513DC7548316881420FDC716881422D
:101790000CDCB168814209DCB0EE690A00F090FB14
:1017A0007F1CBFB2E8888742FFF402AFE9885FF090
:1017B0000000D4ED0F0A00EE101A2F46B8EE400AD2
:1017C00080EE801A84ED0F1A00EE101A04EB8002EE
:1017D000401CB8EE400AD2ED090AC0B2032880EEE0
:1017E000801A82ED091A00E064E0EDD3FFF7C0FB38
:1017F000A220FFF743FD022269462220FFF720FDC9
:10180000FFF7AEFB9DF800109DF80100C90041EA0A
:101810005010B0F5806F01DBA0F5006000EE100AFB
:10182000B4EE001AF3EE070AB8EEC00A40EE010A61
:10183000C4ED060AB888401CB880B86958453FF71F
:1018400087AE94ED0F0ADFED460A30EE600A10F025
:1018500085FB10EE100A5845F1DC404831688142A2
:10186000EDDC71688142EADCB1688142E7DC94ED2D
:10187000090A10F073FB10EE100A3A4FB842DEDC92
:1018800094ED0A0A10F06AFB10EE100AB842D6DC9A
:1018900094ED0B0A10F062FB10EE100AB842CEDC99
:1018A00094ED0F0ADFED300A002680EE801A84EDF9
:1018B000081AA3E05FF00000C846B0EE489AF0EEC8
:1018C000488A524604EB800302EB800C93ED030A36
:1018D00008EB8003411C83ED000AC8B203288CED9D
:1018E000000AEFD330E700BFFFF742FB9220FFF77B
:1018F000C5FC062269461220FFF7A2FCFFF730FB69
:101900009DF801009DF8001095ED032A000200B239
:10191000084301EE100A94ED080ADFED141AB8EE40
:10192000C11ADFED130A21EE021A21EE001A21E09E
:101930001C030024C04700246F12033A000020411A
:10194000F0A032BAB9F3AFBAB1EFBBBA7A841D4195
:10195000000020420AD7A33B000000009A99193EDC
:10196000CDCC1C410AD7233CC3F51C41CDCC4C3F08
:10197000CDCC4C3E84ED001A94ED0C2A22EE212AA7
:1019800001EE202A84ED0C2A9DF803009DF8021038
:1019900095ED032A000200B2084301EE100AB8EEEA
:1019A000C11A21EE021A21EE001A84ED011AD4EDBB
:1019B0000D2A62EEA12A41EE202AC4ED0D2A9DF8DF
:1019C00005009DF80410000200B2084301EE100A61
:1019D000B8EEC11A21EE021A21EE000A84ED020AC5
:1019E00094ED0E1A21EE211A00EE201AB0EE690ACB
:1019F00084ED0E1A00F064FA761CB6B2288986428D
:101A0000FFF472AF09B0BDEC048BBDE8F08F0000AD
:101A1000014801F05FBF0000F8150024014801F003
:101A200059BF000070160024014801F053BF0000A8
:101A3000E01A0024014801F04DBF00008412002488
:101A4000014801F047BF0000581B0024014801F085
:101A500041BF0000681A0024014801F03BBF0000AC
:101A6000D01B0024294A016891423AD0274A1832F3
:101A7000914236D0254A3032914232D0234A483200
:101A800091422ED0214A603291422AD01F4A7832A8
:101A9000914226D01D4A9032914222D01B4AA83250
:101AA00091421ED01A4A91421BD0194A18329142D3
:101AB00017D0174A3032914213D0154A483291421A
:101AC0000FD0134A603291420BD0114A78329142C2
:101AD00007D00F4A9032914203D00D4AA83291426A
:101AE00011D1CAB21823103AB2FBF3F26FF3090115
:101AF000032A02F00703074AD25CC26500D9091D18
:101B000081650846704721F0FF01F9E710000240A7
:101B100010040240746C010830B5224A01230168A8
:101B20009142CAB21BD01F4C1434A14217D01D4C95
:101B30002834A14213D01B4C3C34A1420FD0194C85
:101B40005034A1420BD0174C6434A14207D0154C3D
:101B50007834A14203D0134C8C34A1420CD114210F
:101B6000114C083AB2FBF1F10F4A803201F01F0527
:101B700004EB8101AB4010E00C4D1824103A0D44E9
:101B8000B2FBF4F1A82D00D80831094A01F01F0476
:101B900002EB8101064AA3408032603080E80E00EB
:101BA00030BD00000854025800580258F0FBFDBF39
:101BB0000008024010B50279531E072B2DD8174C90
:101BC0000168A1421BD0154C1434A14217D0134C0C
:101BD0002834A14213D0114C3C34A1420FD00F4CF9
:101BE0005034A1420BD00D4C6434A14207D00B4CB1
:101BF0007834A14203D0094C8C34A14203D1084966
:101C0000074C443102E00749064C443104EB8202A0
:101C1000C0E91B2101219940416710BD08540258B9
:101C2000FC580258FC08024010B583694FF0C0749C
:101C3000826A0146002053B1B3F5005F15D072B13E
:101C4000012A0CD0022A0AD0032A09D104E01AB1D1
:101C5000012A06D0022A03D1C96AC90100D5012090
:101C600010BDC96AA142FAD010BD002AF7D0012ADE
:101C7000F2D0022AF3D0032AF3D010BD2DE9F04FA1
:101C8000804E804FDFF8FC911836DFF8F8A1483716
:101C90000468856D0AF1300ADFF8ECB14C45DFF8D5
:101CA000ECC1DFF8ECE16DD0B4426BD0544569D0A3
:101CB000BC4267D0DFF8D081A8F11808444561D054
:101CC0005C455FD064455DD074455BD0DFF8C4816E
:101CD000444557D0DFF8BC8108F11808444551D07D
:101CE000DFF8B08108F1300844454BD0DFF8A4811B
:101CF00008F14808444545D0DFF8988108F16008AC
:101D000044453FD0DFF88C8108F17808444539D04C
:101D1000DFF8808108F19008444533D0DFF8748102
:101D200008F1A80844452DD0DFF86C81444529D03E
:101D3000DFF8648108F11408444523D0DFF85881A6
:101D400008F1280844451DD0DFF84C8108F13C0813
:101D5000444517D0DFF8408108F15008444511D0C0
:101D6000DFF8348108F1640844450BD0DFF828819E
:101D700008F17808444505D0DFF81C8108F18C088B
:101D8000444509D1D0E91948C4F80480C46E1CB197
:101D9000D0E91C48C4F8048004684C452ED0B442F5
:101DA0002CD054452AD0BC4228D0374E183EB442DD
:101DB00024D05C4522D0644520D074451ED0354ED9
:101DC000B4421BD0334E1836B44217D0314E3036A1
:101DD000B44213D02F4E4836B4420FD02D4E603649
:101DE000B4420BD02B4E7836B44207D0294E9036F1
:101DF000B44203D0274EA836B44215D190F85C60A7
:101E00003F2406F01F06B440AC600468256825F442
:101E1000802525602EE09A600068C160BDE8F08FE3
:101E200099600068C260F9E71B4EB4421BD01A4E9D
:101E30001436B44217D0184E2836B44213D0164E7A
:101E40003C36B4420FD0144E5036B4420BD0124E32
:101E50006436B44207D0104E7836B44203D00E4EEA
:101E60008C36B442DAD190F85C60012406F01F068B
:101E7000B4406C60046863608368402B0368CFD112
:101E8000C9E700001000024088000240A0000240A4
:101E9000B80002401004024008540258064908B530
:101EA0000648496800910269914202D2C168491C02
:101EB000C1600099016108BD001000E030020024FB
:101EC0000A4841680A4AD2ED000A4268B8EE601A30
:101ED000521A60EE011A01EE102AB8EE411AB4EE61
:101EE000E11AF1EE10FAF0D370470000001000E0A4
:101EF0003002002400B50E492DED028B81B04968F7
:101F00000C4A00910168D2ED000A009A0260511A51
:101F100000EE101AF8EE600AB8EE400A80EE208A51
:101F2000FFF7BCFF01B0B0EE480ABDEC028B00BD6C
:101F3000001000E03002002410B500F059F80C4801
:101F4000DFED0C1A90ED000A8188C08800EE901A2F
:101F5000B8EE400A01EE100AB8EE602ADFED060A7C
:101F6000B8EE411A02EE210A01EE200A10BD00006F
:101F7000600200246F12833ABD37863510B500F039
:101F800037F80748074B01688288C088594302EB3D
:101F90004203C3EBC21201EBC2010844002110BD91
:101FA0006002002440420F000D49002370B50D4A25
:101FB0000C6850430C4A44F080740C605360116804
:101FC0004FF47A74074DB0FBF4F4B0FBF5F541F033
:101FD000010606491660CB6081E8310070BD000043
:101FE000FCED00E040420F00001000E03002002451
:101FF00024482DE9F84340680090FFF74FFF224D39
:102000000024621E00982146EB68E3FB0201234690
:1020100006460F46C5E90E01D5F800804246FEF798
:10202000D1F9C5E90601434602468C463046394699
:10203000A2FB03670CFB037302FB0433801B61EB01
:102040000301064605F130080F460023C5E90801E3
:10205000C8F80020D5F804904A46FEF7B3F980B2DC
:10206000A8F80400002300FB09F2B01A67EB040192
:10207000C5E90A01AA68FEF7A5F9A8F80600BDE8B7
:10208000F8830000001000E0300200247047B6EE34
:10209000000A92ED021AB0EE403AD2ED030A01EEC8
:1020A000413A92ED012AD2ED002AF0EE001A62EEDA
:1020B000013A90EC034A00EEE03A22EE202A42EE8A
:1020C000A03A02EEC12A63EE040A43EEA40A42EEED
:1020D000050AB0EE402A60EEA10AC1ED000A92EDB9
:1020E000011A92ED023AD2ED002AD2ED030A61EE16
:1020F000033A01EE412A90EC034A23EE203A42EEE5
:10210000E03A00EEE02A02EE813A63EE840A42EE03
:10211000240A43EE050A60EEA10AC1ED010A92ED20
:10212000011AD2ED032AD2ED020A92ED002A21EE25
:10213000223A60EEA22AD0EC033A01EE410A02EE06
:10214000203A42EE412A00EEE00A23EE231A02EE84
:10215000841A00EE241A21EE210A81ED020A70474A
:1021600072B6FEE710B58AB0002402200121019466
:10217000CDE90414CDE90240114801A9069402F00A
:10218000D3FA08B1FFF7ECFF02220D4800231146F5
:10219000009402F008FB08B1FFF7E2FF08480022B4
:1021A000012102F049FA08B1FFF7DAFF044802F012
:1021B000FDFF002801D0FFF7D3FF0AB010BD0000DB
:1021C00020130024014802F0D5BB00002013002496
:1021D00010B58AB00024022001210194CDE9040445
:1021E000CDE90210114801A9069402F09DFA08B148
:1021F000FFF7B6FF02220D4800231146009402F0BB
:10220000D2FA08B1FFF7ACFF08480022102102F013
:1022100013FA08B1FFF7A4FF044802F0C7FF002833
:1022200001D0FFF79DFF0AB010BD0000C0130024CD
:10223000014802F09FBB0000C013002410B58AB013
:102240000024022003210194CDE90404CDE9021009
:10225000114801A9069402F067FA08B1FFF780FF60
:1022600002220D4800231146009402F09CFA08B1A6
:10227000FFF776FF08480022102102F0DDF908B1CF
:10228000FFF76EFF044802F091FF002801D0FFF72E
:1022900067FF0AB010BD000060140024014802F07E
:1022A00069BB000060140024F0B503684FF6FC71B0
:1022B0006D4C426BD3F884508D4345EA8205C3F8D8
:1022C0008450036853F8845F068F25F47F0545EA40
:1022D00006451D60836B654D9F180268D2F88830F3
:1022E0008B4343EA8703C2F88830026852F8883F7C
:1022F000868F23F4FE0343EA06431360066856F80C
:10230000A03FC26B8B4307EB420243EA8203336078
:10231000076857F8A03FB0F8406023F4FE0343EA93
:1023200006433B60D0E9103603FB06220368D3F86E
:10233000B0608E4346EA8206C3F8B0600368B0F826
:102340004860D3F8B07027F4FE0747EA0646C3F8A2
:10235000B060D0E91267036806FB0722D3F8AC60CF
:102360008E4346EA8206C3F8AC60D0E9146703687E
:1023700006FB0722D3F8F0608E4346EA8206C3F8D4
:10238000F0600368B0F85860D3F8F07027F47C1759
:1023900047EA0646C3F8F0600368876D53F8C06FDC
:1023A00002EB47028E4346EA820119600168B0F8E9
:1023B0005C20D1F8C03023F47C1343EA0242C1F818
:1023C000C020016890F86020D1F8C03023F07C5321
:1023D00043EA0262C1F8C020416B04EB8101C1668F
:1023E000826B01EB82020267C36B02EBC30242679E
:1023F000D0E91034634302EB83028267D0E91234E0
:10240000634302EB8302C267D0E91434634302EBF7
:102410008302C0F88020836D02EBC303C0F88430D0
:10242000C46D826E544303EB8403C0F88830046E9D
:10243000544303EB8402C0F89020AA420AD9D0F892
:102440009C20032142F02002C0F89C2080F89810C4
:102450000120F0BD002200E004C1D0F890308B4292
:10246000FAD80020F0BD000000AC0040FCD30040D2
:10247000F0B58E680C69D1E9005744EA0604DFB173
:1024800045F080452C43866ED1E906C54F695E4311
:1024900091F8203045EA0C05D0F884E00020D1F80E
:1024A0000CC047EA03630D4F1D430EEB860345EA5C
:1024B0000C05E3E802450AE044EA8544E3E7141822
:1024C000155C001DD4F8014045EA042410C3CC6813
:1024D00007EB144424788442F1D8F0BD7C6C0108E9
:1024E000F8B50027044615460E46009790F85C00A4
:1024F00001280BD0012084F85C002046FEF7A4FCE4
:102500000100206E04D040F010002DE00220F8BD44
:1025100020F4885040F002002066206806F48032E3
:1025200005F08043134D1A4383682B401A4342F051
:1025300000428260104A20680EE0009B5B1C009302
:10254000934209D3206E84F85C7020F0020040F0C2
:10255000100020660120F8BD8368DB0FEDD1206EEE
:1025600020F0020040F001002066084684F85C700C
:10257000F8BD0000C0FFFE3F00F8C3252DE9F0477D
:102580000F4690F85C109CB0044601294FF00009FA
:1025900015D00026DFF8F880012084F85C0018963A
:1025A0001996216841450ED13A4D0095284608F00C
:1025B0000BF98246206808F007F960B10EE00220AE
:1025C0001CB0BDE8F087206E84F85C6040F020000D
:1025D00020660120F4E7BAF1000F09D0216E4FF018
:1025E000010941F020002066484684F85C60E7E776
:1025F00020684146884201D0A84201D1264800E027
:10260000264840F61F72D7F800C0254BBCF1000FDA
:1026100023D0D0F808C0D7F804802CF4404C4CEA02
:10262000080CC0F808C0D4F800C08C4501D0AC45F7
:1026300007D18968AB6801F0010103F00103194378
:1026400002E0996801F001010029CDD1BD68396827
:10265000836829439343194317E0876827F4404769
:10266000876027688F4201D0AF4207D18968AB6885
:1026700001F0010103F00103194302E0996801F040
:1026800001010029B0D1816891438160ACE700006D
:102690000020024000210240002302400063025853
:1026A000006002582DE9F84F4FF0000B0446FD4E34
:1026B0000D46CDF800B0DA4690F85C00FA4F0128DC
:1026C00008D04FF0010984F85C90206808F078F891
:1026D00018B152E20220BDE8F88F2068B0420DD058
:1026E0002968C2690B0327D091FAA1F1B1FA81F1EF
:1026F00001F01F0309FA03F10A43C261D5E9001290
:102700004FF00C0C20681F23C1F384610CEA921C6B
:1027100002F01F02604493409140026B9A430A43C7
:102720000263206808F04CF88046206808F044F8FE
:1027300058EA000003D048E1C1F38461D8E7AA68F1
:102740002968206808F04CF82068B04204D1C268BB
:102750006969C2F3C1020BE0D44A1268B9EB127F77
:1027600002D0C168C90605D4C2686969C2F3820291
:10277000520004E0C268696902F0100252089140F8
:102780002A69042A5AD02B6800EB8202B04202F177
:10279000600207D103F0F8401368084340F000409E
:1027A000106008E0D2F800C003F0F84008430CF0D5
:1027B0000041014311602068B0421CD12A69E969D7
:1027C00000EB8200026E22F080720A43026695F8E6
:1027D000201020682A6901290AD00021B042AAD11C
:1027E00000EB8200026E22F000720A430266ECE007
:1027F0004FF00071F2E795F821102A69012917D0EE
:102800005FF0000100EB8200026E22F000420A43FA
:102810000266287E21682A6901280CD000200B69F5
:1028200002F01F02904023F4F04202430A61CCE020
:102830004FF00041E6E74FF40060F0E7B04273D19B
:10284000002107F0B3FF000320684FF000016DD0B6
:1028500007F0ACFF90FAA0F0B0FA80F1286802030C
:1028600069D090FAA0F0B0FA80F0814204D1002241
:102870002068114607F0C4FF2068012107F096FF89
:10288000000320684FF0010158D007F08FFF90FA45
:10289000A0F0B0FA80F12868020354D090FAA0F0BA
:1028A000B0FA80F0814204D120680022012107F0B3
:1028B000A7FF2068022107F079FF000320684FF08E
:1028C000020143D007F072FF90FAA0F0B0FA80F155
:1028D000286802033FD090FAA0F0B0FA80F081425D
:1028E00004D120680022022107F08AFF206803211A
:1028F00007F05CFF000320684FF003012ED007F0C3
:1029000055FF90FAA0F0B0FA80F1286802032AD0AF
:1029100090FAA0F0B0FA80F0814256D120680022EF
:10292000032107F06DFF50E020E0FFE707F03EFFD6
:10293000C0F3846192E7C0F3846096E707F036FF46
:10294000C0F38461A7E7C0F38460ABE707F02EFF14
:10295000C0F38461BCE7C0F38460C0E707F026FFE2
:10296000C0F38461D1E7C0F38460D5E7016E2A78B3
:1029700001F0F841B1EB826F03D1016E21F000410B
:10298000016620682978426E02F0F842B2EB816F4E
:1029900003D1416E21F00041416620682978826EA2
:1029A00002F0F842B2EB816F03D1816E21F0004159
:1029B000816620682978C26E02F0F842B2EB816F1E
:1029C00003D1C16E21F00041C1662068816811F019
:1029D000010F71D1364AB042EB6829680FD1D0F8A7
:1029E000B0C003F01808C1F3130322FA08F20A403A
:1029F0002CEA030C4CEA020CC0F8B0C00EE0D0F890
:102A0000C0C003F01808C1F3130322FA08F20A4009
:102A10002CEA030C4CEA020CC0F8C0C02548E96857
:102A200081427DD1286801031BD090FAA0F1B1FA50
:102A300081F1491C01F01F0109294FEA00313CD8FE
:102A4000002911D090FAA0F1B1FA81F101F1010150
:102A500001F01F0109FA01F209D100BFC0F384613E
:102A600009E0C0F38461E4E7C0F38461EEE790FA23
:102A7000A0F1B1FA81F101F1010101F01F0142EA77
:102A8000816102D1C0F3846003E090FAA0F0B0FA53
:102A900080F000F1010000F01F0000EB400041EA6F
:102AA000005140E000600258002102400010005C2C
:102AB000FFFF0F000000FF4765E000290FD000BFB7
:102AC00090FAA0F1B1FA81F101F1010101F01F01C9
:102AD00009FA01F206D100BFC0F3846106E0C0F339
:102AE0008461F1E790FAA0F1B1FA81F101F10101FD
:102AF00001F01F0142EA816102D1C0F3846003E06A
:102B000090FAA0F0B0FA80F0434A00F1010000F022
:102B10001F0000EB400002EB005041EA000100E022
:102B200005E041F00071AA68206807F059FED5F869
:102B300000C0BCF1000F26DA384B20683849DFF8B6
:102B4000E490984201D0B84201D10A4600E04A46DA
:102B50009268984202F0E07201D0B84209D19D68B3
:102B6000D7F8088005F0010508F0010845EA0805D6
:102B700002E0B56805F001054DB1216E4FF0010A84
:102B800041F020002066504684F85CB0A3E5264D55
:102B9000AC451CD115021AD4B042F4D1984202D0EF
:102BA000B84200D049468B6842F4000023F0E0723E
:102BB00002438A601E491D480968B1FBF0F04000DD
:102BC000801C00E0401E00900028FBD1DBE7194D7F
:102BD000AC450CD1D5010AD4B042D4D1984202D030
:102BE000B84200D049468B6842F080700EE0124D2A
:102BF000AC45C8D15502C6D4B042C4D1984202D027
:102C0000B84200D049468B6842F4800023F0E0725D
:102C100002438A60B7E70000000020FE0020024067
:102C20000023024000630258000052C7400D030019
:102C300068030024000021C3000084CB7047704764
:102C400070470068006C70472DE9F8434FF00005AD
:102C500004002E46009502D0206E18B108E0012035
:102C6000BDE8F883204600F043F9656684F85C50BF
:102C700020688168C1F3407119B181688E4A1140A2
:102C8000816020688168C1F3007181B981688B4AD5
:102C9000114041F0805181608A4989480968B1FB3F
:102CA000F0F0401C00E0401E00900028FBD120689E
:102CB0008168C1F3007141B9216E012641F0100114
:102CC0002166616E41F00101616607F079FD216EB8
:102CD000C90600D420B1206E012640F01000E0E0CB
:102CE000206E20F4807040F0020020662068816829
:102CF000754D11F0010F1ED1744B754A984201D0E9
:102D0000904207D19968976801F0010107F0010727
:102D1000394302E0A96801F0010161B9984201D08C
:102D2000904201D16B4800E06B488268616822F4F0
:102D30007C120A4382602168A9421FD1637ED4E9D4
:102D40000207E26B5B033A43082805D00C280FD03A
:102D50001C280FD018280FD05FF0000000F00C07DF
:102D600094F8200043EA47031A4342EA00400FE088
:102D70000420F3E70820F1E71C20EFE7627E94F8D7
:102D80002030A768E06B520342EA03423843104305
:102D900094F82020012A04D1A28C504B03EB42422C
:102DA0001043A26A2AB1E36A02F47872024343EA4A
:102DB0000200CA68A9420BD1494B1A400243CA60BB
:102DC0002068626B016921F040611143016103E0F9
:102DD000444B1A400243CA60206807F0F1FC0746E2
:102DE000206807F0E9FC07434ED12068A946484512
:102DF00006D1217E94F83820890341EA420103E09C
:102E0000227E216B41EA8231C26844F203039A4375
:102E10000A43C26094F844000128206803D0016985
:102E200021F0010122E048450ED1D4E9121CD4E979
:102E3000143502692C4F41EA0C012B433A401943E7
:102E4000114341F0010111E0D4E91317B4F848C06F
:102E5000DFF89880636D026908EB0C4C224D394312
:102E600043EA0C036D1E2A40194311430161206897
:102E7000236C026922F070421A43026120684845BF
:102E800002D02046FDF728FF2069012820680BD0DA
:102E9000016B21F00F010163206E20F0020040F071
:102EA000010020663046DBE6E269016B521E21F02C
:102EB0000F011143EFE70000C0FFFF5FC0FFFF7F7E
:102EC000400D030068030024006002580020024007
:102ED0000021024000230240006302580000FEFF70
:102EE0000740F0FF03C0F0FF1FF800FC0100FFFFE8
:102EF000F0B587B0064614216846FDF7EEFA2B4A76
:102F000031682B48914244D1294908390A6842F076
:102F100020020A60096801F020010591016841F072
:102F200001010160016801F001010591016841F0B2
:102F300004010160006803240025694600F00400D4
:102F4000059020208DE831001A4802F053F9102036
:102F500069468DE83100184802F04CF9174C0921F8
:102F600017484FF4807C021584E82300D700C4E999
:102F70000352C3142046C4E907C56562C4E9053796
:102F800001F01CF808B1FFF7EBF8B465A66307B0D1
:102F9000F0BD0C4A9142FAD1016841F080710160A4
:102FA000006800F080700590F1E70000002002400A
:102FB000E04402580000025800080258841200241D
:102FC00058000240006002582DE9F0413B4D044694
:102FD00000683B4FA84201D0B84201D1394900E016
:102FE0003949896801F01F0607F0EAFB18B1022190
:102FF0000846BDE8F08194F85C0001280CD001205F
:1030000084F85C002046FDF757FF01004FF00002F6
:1030100004D084F85C20EBE70220EAE7236E40F658
:10302000016C206823EA0C03B84243F480732366E2
:1030300001D12B4600E00346834200D01EB9236E27
:1030400023F480132366236EDB0404D5636E23F020
:103050000603636600E062661C23036084F85C205C
:103060002068B84201D12A4600E00246824215D0CB
:10307000A6B1052E12D0092E10D0226EB84242F40D
:103080008012226600D00546E8688001B0D5206E27
:1030900020F4005040F480502066A9E7C2689201F5
:1030A00005D5226E22F4005242F4805222668268D4
:1030B000064B1A40121D82609AE700000020024071
:1030C000002102400023024000630258C0FFFF7F3E
:1030D0002DE9F047404E044600689146DFF8FC8039
:1030E0008A46B04201D0404501D13D4900E03D490A
:1030F000896801F01F0507F063FB00286AD194F886
:103100005C00012866D001204FF0000784F85C00C5
:1031100025B1052D02D0092D00D003E02046FDF792
:10312000CBFE18B184F85C70BDE8F087216E40F6E4
:10313000016320689943404541F48071216600D0C5
:103140000646864200D01DB9206E20F4801020660D
:10315000206EC00404D5606E20F00600606600E0BA
:1031600067661C20A26D214B1F49D363A36D204AC3
:103170001A64A36D1F4ADA642268106084F85C70D8
:103180002068426842F010024260206888420DD1F7
:1031900094F83810C26822F0030242EA4102C26089
:1031A0002068C16841F00101C16005E0C268216B7F
:1031B00022F003020A43C26021684B46A06D5246CA
:1031C000403101F0D9F821680B4B8A681A40121D72
:1031D0008A60A9E70220A7E7002002400021024000
:1031E000002302400063025800600258BD0D000831
:1031F0003F0E0008250E0008C0FFFF7FF0B5044613
:10320000C8074FF0000010D01E23012603F01F074F
:1032100006FA07F50D4201D15B1EF7D27AB1082AF2
:103220000BD0102A06D0182A01D00120F0BD072BA0
:10323000FBD204E0082BF8D201E0102BF5D2236872
:10324000596121688B6823F0180313438B60F0BD2C
:1032500010B5040010D0607F20B9002020772046F0
:1032600000F032F821790220607739B1D4E90212F6
:103270002046FFF7C3FF48B1012010BD2168114867
:1032800048612068816821F0180181606079A0B1EF
:10329000216820690861012220686369816821F042
:1032A0006001194381602068A369816821F0800171
:1032B000194381606277002010BD21684FF0FF3014
:1032C000E8E70000B71DC10408B500680649884258
:1032D00008D10648016841F400210160006800F44B
:1032E0000020009008BD0000004C0258E044025845
:1032F0002DE9F84F044602F091F800903CB194F8A3
:103300003500022806D0802161650020E4E001201C
:10331000BDE8F88FC74DC74EC6491835206830360E
:10332000DFF81483DFF814938842DFF814A3DFF882
:1033300014B32ED0A8422CD0B0422AD0404528D079
:10334000484526D0504524D0584522D0BD4A183291
:1033500090421ED0BC4A90421BD0BB4A18329042C9
:1033600017D0B94A3032904213D0B74A483290420F
:103370000FD0B54A603290420BD0B34A78329042B7
:1033800007D0B14A9032904203D0AF4AA83290425F
:1033900009D1026822F01E0202602068426922F010
:1033A0008002426103E0026822F00E020260276898
:1033B0008F4238464DD0A8424BD0B04249D040450C
:1033C00047D0484545D0504543D0584541D09D4A07
:1033D000183290423DD09C4A90423AD09A4A1832D4
:1033E000904236D0984A3032904232D0964A483293
:1033F00090422ED0944A603290422AD0924A78323B
:10340000904226D0904A9032904222D08E4AA832E2
:1034100090421ED08D4A90421BD08C4A143290426A
:1034200017D08A4A2832904213D0884A3C329042C0
:103430000FD0864A503290420BD0844A6432904278
:1034400007D0824A7832904203D0804A8C32974229
:1034500004D1206E026822F48072026075492068EF
:10346000884228D0A84226D0B04224D0404522D05D
:10347000484520D050451ED058451CD071491831C0
:10348000884218D07049884215D06F491831884257
:1034900011D06D49303188420DD06B494831884296
:1034A00009D069496031884205D06749783188423E
:1034B00001D065499031016821F0010101600EE001
:1034C00001F0ACFF0099401A052808D92022626556
:1034D0000321002084F8351084F8340017E7386899
:1034E000C007EDD1534A0121206890422ED0A84256
:1034F0002CD0B0422AD0404528D0484526D050454F
:1035000024D0584522D04F4B183398421ED04E4BF2
:1035100098421BD04C4B1833984217D04A4B30334B
:10352000984213D0484B483398420FD0464B6033F3
:1035300098420BD0444B7833984207D0424B90339B
:10354000984203D0404BA833984208D194F85C705D
:103550003F23A06D07F01F07BB40836007E094F88E
:103560005C30A06D03F01F0301FA03F34360206891
:1035700090424DD0A8424BD0B04249D0404547D0B0
:10358000484545D0504543D0584541D02D4A183282
:1035900090423DD02C4A90423AD02B4A1832904269
:1035A00036D0294A3032904232D0274A48329042AF
:1035B0002ED0254A603290422AD0234A7832904257
:1035C00026D0214A9032904222D01F4AA8329042FF
:1035D0001ED01E4A90421BD01C4A1432904217D073
:1035E0001A4A2832904213D0184A3C3290420FD0E7
:1035F000164A503290420BD0144A6432904207D09F
:10360000124A7832904203D0104A8C3290420BD149
:10361000D4E919024260E06E30B1026822F480728F
:103620000260D4E91C024260002084F8351084F85E
:1036300034006DE610000240580002407000024065
:1036400088000240A00002401004024008540258C2
:103650002DE9F05F28B190F83510022904D08021BF
:1036600041650120BDE8F09F904C904B0168183CEB
:1036700018338E4ADFF83C92A1428D4CDFF838E2D5
:103680008E4FDFF83CB2DFF83CA28F4D8F4E31D029
:1036900091422FD099422DD0A1422BD0494529D01B
:1036A000714527D0B94225D0DFF810C20CF1180CB3
:1036B00061451FD0DFF808C2ACF1600C614519D03C
:1036C000DFF8FCC1ACF1480C614513D0DFF8F0C164
:1036D000ACF1300C61450DD0DFF8E4C1ACF1180C51
:1036E000614507D0594505D0514503D0A94201D0C5
:1036F000B1422CD1DFF8B4C14FF0040880F8358016
:10370000ACF1180C61451DD091421BD0994219D0E3
:10371000A14217D0494515D0714513D0B94211D0F7
:103720006648183081420DD065486038814209D022
:1037300063484838814205D061483038814201D021
:103740005F481838086820F001000860ABE0D1F845
:1037500000C02CF00E08DFF854C1C1F80080ACF1B5
:10376000180C0168614527D0914225D0994223D099
:10377000A14221D049451FD071451DD0B9421BD06F
:10378000DFF838C10CF1180C614515D0DFF830C1F5
:10379000ACF1600C61450FD0DFF824C1ACF1480CEE
:1037A000614509D0DFF818C1ACF1300C614503D098
:1037B000DFF80CC1ACF1180CD1F800C02CF0010CF2
:1037C000C1F800C0DFF8E4804FF0010C0168A8F1F7
:1037D0001808414546D0914244D0994242D0A14276
:1037E00040D049453ED071453CD0B9423AD0334AE9
:1037F0001832914236D0324A603A914232D0304A41
:10380000483A91422ED02E4A303A91422AD02C4A40
:10381000183A914226D0594524D0514522D0A94288
:1038200020D0B1421ED02A4A91421BD0284A1432DD
:10383000914217D0264A2832914213D0244A3C3272
:1038400091420FD0224A503291420BD0204A64322A
:10385000914207D01E4A7832914203D01C4A8C32E2
:10386000914218D1016E0A6822F480720A6090F8C1
:103870005C20816D02F01F020CFA02F24A60D0E96E
:1038800019124A60C16E31B10A6822F480720A606E
:10389000D0E91C124A600022016D80F835C080F822
:1038A000342001B188470020DCE6000028000240F7
:1038B000580002407000024088000240A000024010
:1038C0007004024088040240A0040240B804024090
:1038D000085402582DE9FC5F0446F74E0020DFF83B
:1038E000D88300904FF41652F44808F11808A56DDB
:1038F000DFF8C493DFF8C0A3016809F1300920683C
:103900000AF1480AB1FBF2F1B04201912F68D5F8F3
:1039100000C0DFF8ACB335D04146884232D04845CC
:1039200030D050452ED058452CD0E549183188422A
:1039300028D0E3493031884224D0E14948318842D7
:1039400020D0E04988421DD0DE491831884219D084
:10395000DC493031884215D0DA494831884211D0EB
:10396000DFF860E30EF1600E70450BD0D54A783277
:10397000904207D0D34B9033984203D0D149A8311D
:1039800088427DD194F85C20082102F01F0201FAE0
:1039900002F23A424AD0B04232D0404530D0484597
:1039A0002ED050452CD058452AD0C54A18329042C6
:1039B00026D0C34A3032904222D0C14A4832904287
:1039C0001ED0C04A90421BD0BE4A1832904217D037
:1039D000BC4A3032904213D0BA4A483290420FD09B
:1039E000B84A603290420BD0B64A7832904207D043
:1039F000B44A9032904203D0B24AA832904203D1E6
:103A0000026802F0040202E0026802F008026AB1F1
:103A1000026822F00402026094F85C0000F01F00CB
:103A20008140A960606D40F00100606594F85C0021
:103A3000012100F01F008140394240D02068B0428F
:103A400034D0404532D0484530D050452ED058452E
:103A50002CD09B4A1832904228D0994A303290425A
:103A600024D0974A4832904220D0964A90421DD0A6
:103A7000944A1832904219D0924A3032904200E073
:103A8000AFE113D08F4A483290420FD08D4A603256
:103A900090420BD08B4A7832904207D0894A9032BC
:103AA000904203D0874AA83290427DD1406910F0FD
:103AB000800F04D0A960606D40F00200606594F84A
:103AC0005C00042100F01F00814039423ED0206894
:103AD000B04232D0404530D048452ED050452CD051
:103AE00058452AD0764A1832904226D0744A30324D
:103AF000904222D0724A483290421ED0714A90427F
:103B00001BD0704A1832904217D06E4A3032904221
:103B100013D06C4A483290420FD06A4A60329042C9
:103B20000BD0684A7832904207D0664A9032904271
:103B300003D0644AA83290424ED1006810F0020FC0
:103B400004D0A960606D40F00400606594F85C00EA
:103B5000102100F01F008140394258D02068B04247
:103B600034D0404532D0484530D050452ED058450D
:103B70002CD0534A1832904228D0514A30329042C9
:103B800024D04F4A4832904220D04E4A90421DD015
:103B90004C4A1832904219D04A4A3032904215D0DD
:103BA000484A4832904200E014E00FD0454A603263
:103BB00090420BD0434A7832904207D0414A90322B
:103BC000904203D03F4AA832904207D1006800F0EB
:103BD000080006E0006872E70068B7E7006800F0D8
:103BE0000400A0B1A96020680168490304D50068F9
:103BF000000308D5A16C07E00168C90503D401687A
:103C000021F008010160216C09B12046884794F831
:103C10005C00202100F01F008140394279D02068EB
:103C2000B04232D0404530D048452ED050452CD0FF
:103C300058452AD0224A1832904226D0204A3032A3
:103C4000904222D01E4A483290421ED01D4A9042D5
:103C50001BD01C4A1832904217D01A4A3032904278
:103C600013D0184A483290420FD0164A6032904220
:103C70000BD0144A7832904207D0124A90329042C8
:103C800003D0104AA832904203D1006800F010001F
:103C900002E0006800F00200B0B3A96094F83500BB
:103CA0000428206801680FD049037ED5006800030E
:103CB0002BD4616C2AE0000010000240680300244D
:103CC000700002401004024021F0160101602068DB
:103CD000416921F080014161206C08B9A06C20B1DC
:103CE0002068016821F00801016094F85C303F21F0
:103CF000012003F01F0300229940A96084F83500D9
:103D000084F83420216D65E003E0E16B09B12046C1
:103D10008847606D00287DD0606DC00759D020684D
:103D2000042184F83510B0422BD0404529D04845B5
:103D300027D0504525D0584523D09D49884220D0D2
:103D40009B49183188421CD099493031884218D09B
:103D50009849884215D097491831884211D0954921
:103D6000303188420DD093494831884209D0914979
:103D70006031884205D08F497831884201D08D4921
:103D80009031016821F00101016020680099019AD9
:103D9000491C0091914202D80168C907F6D1006818
:103DA000C00710D003200FE0FFE70168C905ACD4BD
:103DB00003680121002223F01003036084F835100A
:103DC00084F83420A1E7012084F83500002084F82D
:103DD0003400E16C00291DD002B02046BDE8F05F40
:103DE0000847754988421DD073491431884219D05B
:103DF00071492831884215D06F493C31884211D031
:103E00006D49503188420DD06B496431884209D0E8
:103E1000694900E084E07831884203D066498C31FA
:103E200088427DD194F85C800427016808F01F085F
:103E300007FA08F717EA0C0F009746D04F0744D54A
:103E400000980F04686003D5C8033CD4A16CC1E797
:103E5000880638D42068B0422DD055496039884250
:103E600029D0484527D0504525D0584523D0504922
:103E7000884220D04E49183188421CD04C493031FC
:103E8000884218D04B49884215D04A491831884297
:103E900011D04849303188420DD0464948318842D6
:103EA00009D0704507D0904205D0984203D04149CF
:103EB000A831884203D1016821F0080102E00168BD
:103EC00021F004010160216C84E7022707FA08F75A
:103ED00017EA0C0F00974ED08F074CD500980F04AF
:103EE000686003D5C80344D4616C73E7880640D486
:103EF0002068B0422FD02E49603988422BD04845E7
:103F000029D0504527D0584525D02949884222D06C
:103F10002749183188421ED025493031884200E0B7
:103F200044E018D02349884215D0224918318842EC
:103F300011D02049303188420DD01E494831884285
:103F400009D0704507D0904205D0984203D0194956
:103F5000A831884203D1016821F0140102E0016810
:103F600021F00A010160012184F83510002084F855
:103F70003400E16B2EE7082202FA08F212EA0C0F75
:103F800014D0090712D5016821F00E01016094F8E0
:103F90005C100120002201F01F0100FA01F16960AC
:103FA000606584F8350084F8342012E7BDE8FC9F92
:103FB0008800024010040240085402582DE9F05FC6
:103FC000044601F02BFA002C07467DD0E24E022178
:103FD00020684FF00308DFF884934FF00005DFF806
:103FE00080A3B042DFF87CB334D0DB4A1832904271
:103FF00030D048452ED050452CD058452AD0D94AEB
:104000001832904226D0D74A3032904222D0D54A38
:10401000483290421ED0D44A90421BD0D24A183225
:10402000904217D0D04A3032904213D0CE4A483214
:1040300090420FD0CC4A603290420BD0CA4A7832BC
:10404000904207D0C84A9032904203D0C64AA83264
:1040500090427DD184F83510B04284F834502ED08F
:10406000BD49183188422AD0484528D0504526D02D
:10407000584524D0BB491831884220D0B949303145
:1040800088421CD0B7494831884218D0B649884286
:1040900015D0B5491831884211D0B3493031884222
:1040A0000DD0B1494831884209D0AF4960318842CA
:1040B00005D0AD497831884201D0AB4990310168D3
:1040C00021F00101016008E025E100BF01F0A6F93F
:1040D000C01B052801D920211AE120680068C0070B
:1040E000F4D1D4E902032168103418438E4694E8D1
:1040F0008410D4E9033809683A4310439B4A40EAE4
:104100000C00676918431140103C40EA0800042F76
:1041100040EA010003D1D4E90B121143084361685E
:10412000A1F12902052A0BD9163A032A08D9083A1F
:10413000012A05D9083A032A02D97439032901D87A
:1041400040F48010CEF800002068676A406900E003
:1041500020E0042F20F0070047EA00070DD1D4E942
:104160000A01074349B12046FDF75EFD28B1402012
:104170006065012184F83510CDE020684761204654
:10418000FDF770FC94F85C203F2102F01F02914083
:10419000816055E0764A90421BD0754B14339842AB
:1041A00017D0734B2833984213D0714B3C3398424D
:1041B0000FD06F4B503398420BD06D4B6433984205
:1041C00007D06B4B7833984203D0694B8C339842BD
:1041D0007ED184F8351084F83450664B0168A268AB
:1041E00001EA030E402A74D0802A73D05FF00002E7
:1041F000D4E90378D4E9053142EAD70242EAD80883
:104200005B4AD4E9077C48EAD30848EAD10141EA8D
:10421000D701524241EA1C11142341EA0E01016008
:1042200020681044B0FBF3F08000E0652046FDF705
:1042300019FC94F85C20012102F01F0291404160BA
:104240002068B04257D044491831884253D048457D
:1042500051D050454FD058454DD042491831884231
:1042600049D040493031884245D03E4948318842A2
:1042700041D03D4988423ED03B49183188423AD02E
:1042800039493031884236D037494831884232D0B6
:104290003549603188422ED03349783188422AD05E
:1042A00031499031884226D02F49A831884222D006
:1042B0002F4988421FD02E49143188421BD02C49E7
:1042C0002831884217D02A493C31884213D002E075
:1042D0001DE017E018E02649503188420BD02449F0
:1042E0006431884207D022497831884203D020497E
:1042F0008C31884229D12046FDF70EFCA068802829
:104300000CD00CE0102273E74FF4804270E740219C
:10431000616584F835800120BDE8F09F6560216EFD
:1043200020790860D4E9190141606068401E0728BF
:1043300008D82046FDF73EFCE06E0560D4E91C017C
:10434000416002E0E566256765670120656584F8E0
:1043500035000020E0E7000010000240400002406D
:104360005800024070000240100402403F8010FEDE
:10437000085402580F00FEFF2DE9F84F04008C4648
:104380004FF00000009014D094F83400012812D0AF
:1043900094F835500120002184F83400012D0CD010
:1043A000C00260650120009084F834100098BDE8D8
:1043B000F88F0120FBE70220F9E78C4D02262068E8
:1043C00084F83560A8428A4D61658A4E8A4FDFF8CD
:1043D0002C82DFF82C92DFF82CA2DFF82CB226D04A
:1043E000A84224D0B04222D0B84220D040451ED0AE
:1043F00048451CD050451AD0584518D083498842AA
:1044000015D082491831884211D080493031884214
:104410000DD07E494831884209D07C4960318842BC
:1044200005D07A497831884201D0784990310168C5
:1044300021F00101016061462046FDF71FFC6B4938
:10444000206888422CD0A8422AD0B04228D0B84256
:1044500026D0404524D0484522D0504520D058454C
:104460001ED06A4A90421BD0684A1832904217D038
:10447000664A3032904213D0644A483290420FD09C
:10448000624A603290420BD0604A7832904207D044
:104490005E4A9032904203D05C4AA83290420CD1DE
:1044A000026822F01E0242F016020260206C88B1FF
:1044B0002068026842F008020BE0026822F00E0257
:1044C00042F00A020260206C20B12068026842F0CB
:1044D00004020260206888424BD0A84249D0B04212
:1044E00047D0B84245D0404543D0484541D05045DB
:1044F0003FD058453DD0454A90423AD0434A1832C1
:10450000904236D0414A3032904232D03F4A48320F
:1045100090422ED03D4A603290422AD03B4A7832B7
:10452000904226D0394A9032904222D0374AA8325F
:1045300090421ED0364A90421BD0354A14329042E7
:1045400017D0334A2832904213D0314A3C3290423D
:104550000FD02F4A503290420BD02D4A64329042F5
:1045600007D02B4A7832904203D0294A8C329042AD
:104570000DD1206E0268D20303D5026842F4807226
:104580000260E06E18B1026842F480720260206836
:10459000884226D0A84224D0B04222D0B84220D0AF
:1045A00040451ED048451CD050451AD0584518D01B
:1045B0001649884215D015491831884211D013493F
:1045C000303188420DD011494831884209D00F4915
:1045D0006031884205D00D497831884201D00B49BD
:1045E0009031016841F001010160DFE610000240F6
:1045F0002800024040000240580002407000024083
:1046000088000240A0000240B800024010040240AE
:104610000854025870B5044600F000FF0546601CBF
:1046200002D004480078044400F0F8FE401BA04289
:10463000FAD370BD1003002410B590F89830012B08
:1046400009D0022B07D0D0F89C1041F00201C0F82D
:104650009C10012010BD03689C6D0C4203D1DC6DE1
:1046600044F0010404E09C6D31EA04041FD00324EB
:10467000DC658B0505D50368D3F8E0401443C3F827
:10468000E0404B0505D50368D3F8E4401443C3F874
:10469000E4400068084A01EA0203446D074A1C43EB
:1046A0004465106840EA91701060002010BDDC6D18
:1046B00044F00204DCE70000FFFFCF3F14A80040F5
:1046C00070B5044690F89800022804D0D4F89C00F5
:1046D00040F008000DE02068D0F8C03013F07C5F97
:1046E0000BD0D0F8C4309B020CD5D4F89C0040F419
:1046F0000070C4F89C00012070BDD4F89C0040F00C
:104700002000F6E7D0F8C400C0F3044520462B464D
:10471000FDF7AEFE21680120A840C1F8D000C4F822
:104720009400002070BD704770B590F89820012A61
:1047300009D0022A07D0D0F89C1041F00201C0F83D
:104740009C10012070BD0B68CA6883B10B69072AF1
:1047500043EA427325D00C7A4A6942EA8472496876
:10476000006F00EBC100C0E90032002070BD072AD5
:104770000DD00C7AD6060D8A4B6943EA847246EA5C
:104780000543C06E49681A4340F82120EDE70B8AC3
:104790004FF06055D1E9062442EA034245EA04237A
:1047A000EFE78A69DBE730B590F89850039C012D5C
:1047B00007D0D0F89C1041F00401C0F89C100120F3
:1047C00030BD0D01016845EA820040EA4300204304
:1047D000C1F88000002030BD70477047F0B590F8F8
:1047E00098400025022C04D0D0F89C1041F008011C
:1047F0002BE040294FF0004605D0412929D0046D17
:104800008C4219D942E00468D4F8A07017F4FE0F66
:1048100012D0D4F8A4707F0613D0D4F8A470FF018E
:1048200005D5D4F8A070B6EBD77F00D10125D4F818
:10483000A470466F446C24E0D0F89C1041F0200135
:1048400003E0D0F89C1041F48071C0F89C10012066
:10485000F0BD0468D4F8B07017F4FE0FECD0D4F8B3
:10486000B4707F06EDD0D4F8B470FF0105D5D4F84C
:10487000B070B6EBD77F00D10125D4F8B470866F45
:10488000C46CC7F305273D446C4302E0446DC66F1A
:104890004C4306EB8404266816F080465660266872
:1048A00036D026F060461660D4F800C000262F4FA0
:1048B0000CF0005CC2F808C0D4F800C00CF0004C4A
:1048C000C2F810C0B4F804C01FFA8CFCC2F81CC0B7
:1048D000D4F804C00CF4702CC2F80CC0D4F804C096
:1048E0000CF4801CC2F814C0D4F804C00CF4001CF2
:1048F000C2F818C0D4F804C0CCF3066CC2F820C0CB
:10490000D4F804C008344FEADC7CC2F824C008E0C4
:10491000C6F38A46C7E700BF14F806C003F806C00E
:10492000761CD2F80CC007EB1C4C9CF800C0B445B8
:10493000F2D840290AD041290CD020294FF0010299
:104940000CD200688A40C0F898200DE00068C0F8DA
:10495000A85009E00068C0F8B85005E0006801F010
:104960001F018A40C0F89C200020F0BD7C6C01082B
:10497000704700002DE9FF5FDFF80CB304460BF130
:104980000401DBF8000025680F68AA468007D5F807
:104990005090696DD5F850806E6D2A6DD5F854C071
:1049A0002B6D00EA8770009009F470496F6D286DD7
:1049B00001EA09010191DAF85410DAF85490DAF8B2
:1049C000505008F00F0806EA0806029602F0F002BE
:1049D00003F071536FEA09061F4000F060700CEAA3
:1049E000020CCDF80CC0F20501EA00090CD4E84332
:1049F000C00509D400214FF48073CAF85030CBF8B9
:104A000000102046FFF7B4FF700512D4E8434005BC
:104A10000FD4206800234FF48068D0F8DC20D0F851
:104A2000E410C0F85080CBF800301140204600F070
:104A3000DCFBDFF858A2009850B12268830F00EA2F
:104A40000A001065CBF8003020460099FFF76BFE96
:104A5000019850B12268830F00EA0A001065CBF874
:104A600000302046019900F0C2FB029850B1226844
:104A7000830F00EA0A001065CBF800302046029947
:104A800000F0CAFA039850B12268830F00EA0A00C6
:104A90001065CBF800302046039900F007FB300585
:104AA0000CD4E843000509D4236800204FF40062C9
:104AB0001A65CBF80000204600F09AFBB00512D42E
:104AC000E84380050FD4206800234FF40078D0F825
:104AD000D820D0F8E010C0F85080CBF8003011405A
:104AE000204600F083FB30030CD4E843000309D4D4
:104AF000236800204FF400221A65CBF800002046FE
:104B000000F088FAF0030CD4E843C00309D423680A
:104B100000204FF480321A65CBF80000204600F0E8
:104B200063FB70030CD4E843400309D422680020DF
:104B30004FF480231365CBF80000204600F053FBB0
:104B4000B0030FD4E84380030CD4236800204FF453
:104B500000321A65CBF80000D4F89C0040F08000C9
:104B6000C4F89C00B9F1000F0BD022684FEA99738A
:104B700009EA0A001065CBF8003049462046FFF7E5
:104B80002CFE5FB12268BB0F07EA0A001065CBF864
:104B90000030D4F89C003843C4F89C003C4920689D
:104BA000884268D1606881468068800763D0D9F800
:104BB0002060D9F82410D9F82080D9F82400D9F839
:104BC00020C0D9F82470D9F82030D9F82450D9F869
:104BD000202003F4FC4306F00F0AD9F824601D409E
:104BE000D9F824B008F030080CF4C07C02F4F022AC
:104BF00011EA0A0100EA080807EA0C0706EA0206B9
:104C0000D9F820A004D0C9F82010204600F0E8FA16
:104C1000B8F1000005D0616808624146204600F006
:104C2000E1FA6FEA0B0040060ED46FEA0A00400674
:104C30000AD460684021C36BC26B01622046190C24
:104C400002F03F0200F0CDFA2FB1606807623946EA
:104C5000204600F0C4FA35B160680562D4F89C00C3
:104C60002843C4F89C0036B160680662D4F89C0002
:104C70003043C4F89C00D4F89C00002802D02046A1
:104C8000FFF7AAFDBDE8FF9F10A80040FFFFCF3F40
:104C900000A000402DE9F04194B08D494C2204461B
:104CA0006846FBF701FC64B18A4D2068A84202D136
:104CB00000F58070606094F898004FF0000820B113
:104CC00008E0012014B0BDE8F081204684F8998006
:104CD00000F002F92068816921F01001816100F083
:104CE0009DFB0327064604E000F098FB801B0A2882
:104CF00011D8206880690007F6D42068816941F0E6
:104D00000101816100F08AFB06460DE000F086FBA0
:104D1000801B0A2808D9D4F89C0040F00100C4F890
:104D20009C0084F89870CCE720688069C007EDD0BB
:104D30002068816941F002018161207C012820689E
:104D4000816937D041F040018161607C0128206891
:104D5000816932D021F480418161A07C01282068E2
:104D600081692DD041F4805181612068A2688169F8
:104D700021F44071114381612068816921F0A4010F
:104D800081612068016921F010010161E06801285A
:104D900019D010B302281BD02068816941F080012E
:104DA00081612068016941F010010161E068032818
:104DB0000ED012E021F04001C6E741F48041CBE77C
:104DC00021F48051D0E72068816941F0040103E0BB
:104DD0002068816941F020018161207E6FF0FF022F
:104DE000D4E90773A68A1102400602EB0727A0F157
:104DF0000070384327685B1E184301EB06463043BA
:104E0000F861A068B0F5407F11D104F12800A68CAC
:104E10006FF00F0C89C801EB0641401E02EB032224
:104E2000104322680CEB071318430843D060206E30
:104E300030B12068626ED0F8C0101143C0F8C010C5
:104E4000D4E917126846D14209D02168A36E51F8FF
:104E5000C82F50F8233022F007021A430A60216C51
:104E600049B12168626C51F8BC3F50F8226023F0D0
:104E7000070232430A60A16C51B12168E36C51F81A
:104E8000BC2F50F8233022F0700242EA03120A606D
:104E9000216D51B12168626D51F8BC3F50F822007C
:104EA00023F4E06242EA002008602068A84204D1AE
:104EB0006068816821F003018160C4F89480012159
:104EC000C4F89C8084F898102046FDF7EDF9F9E6C7
:104ED0008C6C010800A00040F0B587B00546142195
:104EE0006846FBF7FAFA454E0024434B02272D682B
:104EF0004FF0090CDFF808E10C3B31683E4A75457C
:104F0000404801F1010122D10129316007D1116826
:104F100041F480711160116801F480710591196884
:104F200041F008011960196801F008010591032199
:104F30000091CDE90174CDE9034C694600F05AF9BE
:104F400000220621132000F00BFB132026E0DFF8DF
:104F5000B8E0754526D10129316007D1106840F4C9
:104F600080701060106800F480700590186840F040
:104F7000020018601868694600F002000590602081
:104F80000090CDE901742148CDE9034C00F032F9DD
:104F900000220521142000F0E3FA142000F0D2FAD8
:104FA00007B0F0BDDFF868C06545F9D1012931606F
:104FB00007D1116841F480711160116801F48071AA
:104FC0000591196841F0080119601968052201F07E
:104FD000080105914FF440510091CDE90174CDE9EC
:104FE0000342694600F006F9002205219F2000F0E7
:104FF000B7FA9F20D2E70000EC44025820000024BA
:1050000000A00040000C025800A400400004025818
:1050100000D400407047000070B5C90727D01F4A70
:105020000168914223D11E4B4021A3F12802FFF7D2
:10503000D5FB00F0F3F9054619481A4C002328382F
:105040000168582904D013DCA1F1510006280ED8BC
:105050005139CAB22270072A12D8134E104906EBF2
:10506000821005F0D9FB207806EB8010C56370BD77
:10507000A1F201210629FAD8C8B22070072801D967
:10508000237070BD084E0649803E06EB00100DF0FF
:10509000A7F9207806EB0010C56070BD00A00040A5
:1050A000C037002470020024503900242DE9F04755
:1050B0000746C80634D5384900263868DFF8DC8052
:1050C000374C88423BD1A8F5947338464121A3F16F
:1050D0002802FFF783FB00F0A1F90546A8F5A870A8
:1050E0000068582804D012DCA0F15101062926D806
:1050F0005138C2B26270082A11D82A4908EB8210CE
:1051000005F08AFB617808EB8110C56317E0A0F217
:105110000120062813D8C0B26070072802D9667033
:10512000BDE8F087DFF874901E49A9F1800909EB0A
:1051300000100DF055F9617809EB0110C5601A49AE
:1051400038688842ECD1174B412138466833A3F1C7
:105150002802FFF743FB00F061F905461148403093
:105160000068582804D0DBDCA0F151010629D7D80B
:105170005138C2B2A270082A01D9A670D0E70949F5
:1051800008EB82104646683105F046FBA07806EB36
:105190008010C563C4E7000000A40040503900241B
:1051A000700200242838002400D4004090F89810A1
:1051B000012907D0D0F89C1041F00401C0F89C10E0
:1051C00001207047022180F89810002201688B6945
:1051D00023F001038B61C0F89C2010467047704794
:1051E0007047704770477047704770477047704707
:1051F000704700002DE9F84F03247A4D00234FF04B
:1052000001094FF0B04B4FF00F0AE4E009FA03F642
:10521000324078D00F7907F00307012F01D0022F19
:105220001AD187684FEA430ED1F80CC004FA0EF881
:1052300027EA08070CFA0EFC4CEA070CC0F808C075
:10524000476891F804C0B743CCF3001C0CFA03FC88
:105250004CEA070CC0F804C00E79F643B6070BD031
:10526000C6684FEA43088F6804FA08FC26EA0C0671
:1052700007FA08F73743C7600E7906F00306022ED7
:1052800012D1DE080F694FEA437C00EB8606B64672
:10529000366A4FEADC6C0AFA0CF807FA0CF726EAD1
:1052A00008063743CEF820700F7906684FEA4308A6
:1052B00007F0030704FA08FC07FA08F726EA0C06C9
:1052C000374307604E6816F4403F1CD0464E37689F
:1052D00047F00207376036689F0706F0020600961F
:1052E00023F0030606F1B046B6463F0FD6F8086431
:1052F000DFF8F8800AFA07FC404526EA0C0603D1DD
:105300004FF0000C3AE065E0DFF8E4C0604502D100
:105310004FF0010C32E0DFF8DCC0604502D14FF005
:10532000020C2BE0DFF8D0C0604502D14FF0030C37
:1053300024E0DFF8C8C0604502D14FF0040C1DE046
:10534000DFF8BCC0604502D14FF0050C16E0DFF875
:10535000B4C0604502D14FF0060C0FE0DFF8A8C0E2
:10536000604502D14FF0070C08E0DFF8A0C06045AF
:1053700002D14FF0090C01E04FF00A0C0CFA07FCC7
:105380004CEA060CCEF808C44F68DBF80060FF0258
:1053900026EA020600D516435F46CBF80060D1F836
:1053A00004C0DBF804605FEA8C2C26EA020600D514
:1053B00016437E606E684F6826EA0206BF0300D57A
:1053C00016436E602E684F6826EA0206FF0300D57A
:1053D00016432E605B1C0A6832FA03F67FF416AFA0
:1053E000BDE8F88F80000058F444025800000258CD
:1053F0000004025800080258000C0258001002581D
:105400000014025800180258001C025800240258C8
:105410000AB1816170470904FBE700000148806818
:10542000704700001003002402488168027811448C
:105430008160704710030024032010B500F0B0F81D
:1054400002F05CFC0F4A104914681368C4F303228D
:1054500003F00F038A5CC95C02F01F0201F01F0118
:10546000D0400A4A20FA01F11160094908600F2072
:1054700000F010F808B1012010BD00F051F8002034
:1054800010BD000018440258006D01086C03002490
:105490006803002410B5102804468AB02CD20022DC
:1054A0000146362000F05CF8362000F04BF8174833
:1054B00004601748016841F010010160006809A903
:1054C00000F010000890684602F0A4FB0598B0B107
:1054D00002F0F0FB40000F4900220F4CB0FBF1F14D
:1054E0000E4840F2E7330460C0E90332491EC0E9C8
:1054F000011203F037FC28B101200AB010BD02F000
:10550000D9FBE8E7054803F079FCF6E7140300242B
:10551000E844025840420F0000100040481C00249C
:10552000074882B0016841F0020101600068002272
:105530000F2100F002000090901E02B000F010B8A1
:10554000F4440258002809DB410900F01F028900D9
:10555000012001F1E0219040C1F8000170470000F6
:105560000E4BF0B41B680D46C3F30223C3F10706CC
:10557000042E00D90426191D072901D2002300E0BA
:10558000DB1E012404FA06F19C40491E2940641EDA
:10559000994014402143F0BC09F05CBE0CED00E0E2
:1055A000064900F0070210B54FF6FF040868044BE7
:1055B000204040EA02201843086010BD0CED00E0D6
:1055C0000000FA05BFF34F8F0548064A016801F451
:1055D000E06111430160BFF34F8F00BFFDE70000A2
:1055E0000CED00E00400FA052DE9F04F0268834657
:1055F000FE484FF0000A8DB00C468242564602D15A
:105600000025012001E001250020E8460027814611
:1056100007EB47017F1C08EBC101F8B205F08AFED9
:1056200020B108204FF0010ACBF85400FFB2022F3E
:10563000EED3BAF1000F7CD1DFF8B0E3DEF8000062
:10564000C00707D0DEF8001046F0010621F0010186
:10565000CEF80010E6480068C00706D0E44846F0DF
:105660000206016821F00101016005EB45030C937E
:10567000E048424608EBC303DFF87CB30121DC4677
:105680009F6800EB8707D7F8008428F48078C7F874
:105690000084DBF80070FF0732D0DCF80070B9F14D
:1056A000010F27F00107CCF800705CD1069B00EBDE
:1056B0008303D3F8007447F00207C3F80074079B14
:1056C0003BB100EB8303D3F8007447F02007C3F825
:1056D0000074099B4BB121EA030300EB8303D3F869
:1056E000047447F48027C3F804740A9BDBB321EAEF
:1056F000030700EB8703D3F8047447F0806730E0BA
:105700000C9F52F8377077B300EB8707D7F800C4C7
:105710002CF0010CC7F800C45F683FB100EB8707AD
:10572000D7F800C42CF0100CC7F800C4D3F80CC094
:1057300000E057E1BCF1000F09D021EA0C0700EBB3
:105740008707D7F804C42CF4803CC7F804C41B694D
:105750004BB121EA030700EB8703D3F8047427F069
:105760008077C3F8047409EB4903D4F800C0CDF87E
:1057700030C0914652F83370BC4518D009EBC302D3
:10578000D4F804C0D2F80480C44510D0D4F808C0BE
:10579000D2F80880C4450AD0D4F80CC0D2F80C80E6
:1057A000C44504D0D4F810C01269944551D10C9A64
:1057B000BA4219D109EBC302D4F804C0D2F804806C
:1057C000C44511D1D4F80CC0D2F80C80C4450BD11B
:1057D000D4F810C01269944506D1DBF8003043F0CC
:1057E0000103CBF8003034E000EB870709EBC3027C
:1057F000D7F8003423F00103C7F8003453683BB1F5
:1058000000EB8303D3F8007427F01007C3F800748B
:10581000936800EB8303D3F8007427F48077C3F810
:105820000074D3684BB121EA030700EB8703D3F878
:10583000047427F48037C3F8047412694AB121EA6A
:10584000020300EB8302D2F8043423F08073C2F821
:105850000434A3685A4600EB8303D3F8007427F49A
:10586000407747EA452747F48077C3F80074DBF8B0
:1058700000C063695F1ECCF3074C674508D95F4FD2
:10588000D2F800C007EB03472CF47F033B431360BF
:105890001268D207226800EB8202D2F800343FD0AF
:1058A00023F003035B1CC2F8003462684AB100EBCA
:1058B0008202D2F8003423F0300343F01003C2F820
:1058C0000034E268D3030AD521EA020300EB830225
:1058D000D2F8043423F4E02343F480330AE05AB1CD
:1058E00021EA020300EB8302D2F8043423F0E063E0
:1058F00043F08073C2F804342269D30307D591437F
:1059000000EB8100D0F8041421F4E0214AE0EAB36E
:10591000914300EB8100D0F8041421F0E0614EE0E7
:1059200001EB450723F003033B43C2F800346268F0
:105930005AB100EB8202D2F8003423F0300343EA7C
:10594000451343F01003C2F80034E268D3030CD5CA
:1059500021EA020300EB8302D2F8043423F4E023AB
:1059600043EA854343F480330CE06AB121EA020341
:1059700000EB8302D2F8043423F0E06343EA85634A
:1059800043F08073C2F80434226900E01BE0D303C3
:105990000BD5914300EB8100D0F8041421F4E021F1
:1059A00041EA854141F440310BE062B1914300EBA3
:1059B0008100D0F8041421F0E06141EA856141F0F2
:1059C0004071C0F80414F00705D0DEF8001041F073
:1059D0000101CEF80010B00704D50548016841F078
:1059E000010101600DB05046BDE8F08F005000523B
:1059F00000A0005200B0005200B400520000FFFFAF
:105A00002DE9F84317460D460446FFF707FD81468A
:105A10002068866CD0F81081206D042803D1E868D6
:105A2000B0F5800F04D0102161650120BDE8F88336
:105A300000224B4620212046009705F021FF002838
:105A4000F4D121682868C1F8880021686868C1F825
:105A5000800021682869C1F890002168D5E9020218
:105A60000B68104323F0435343F000521043086087
:105A7000E068B0F1806F206804D0D0F8001111F414
:105A8000E06F01D0866401E0C0F810810122082196
:105A90004B462046009705F0F3FE0028C6D1236848
:105AA000082202215A622165C0E7F8B516460D4664
:105AB0000446FFF7B3FC0746206D022804D01428E3
:105AC00007D0242809D00DE0E068B0F1806F0DD137
:105AD00008E02868022809D002E02868012805D0DB
